020240207652226000116CONSIGSIAPE                                                                                                                                                                                                                                                                                                                                                                                                                                                                                                                                         
19907219199140000000040000000000700133969635016900000003118022000000454970000004289000012920000356000041200000000                                                                                                                                                                                    000000000000000000000000000000000000000000                                                                                                                                                                                     
19907230023140000000040000000000700134460635016900000003110022000000453780000004277600012910000356000041200000000                                                                                                                                                                                    000000000000000000000000000000000000000000                                                                                                                                                                                     
12500022463330000000040000000000700135353235016900000001684022000000245640000002315700006970000356000041300000000                                                                                                                                                                                    000000000000000000000000000000000000000000                                                                                                                                                                                     
19907262346070009907240000000000700135351635016900000001428022000000208340000001964200005890000356000041200000000                                                                                                                                                                                    000000000000000000000000000000000000000000                                                                                                                                                                                     
19907242487910009907240000000000700133784735016900000003228022000000470980000004439700013390000356000041200000000                                                                                                                                                                                    000000000000000000000000000000000000000000                                                                                                                                                                                     
19907214252120000000040000000000700135367235016900000002551015000000285610000002702300007130000347000041700000000                                                                                                                                                                                    000000000000000000000000000000000000000000                                                                                                                                                                                     
19907221651990000000040000000000700134968335016900000002392022000000348940000003289700009890000356000041200000000                                                                                                                                                                                    000000000000000000000000000000000000000000                                                                                                                                                                                     
14080610389890000000040000000000700134641235016900000005014004000000182450000001750500002130000292000042400000000                                                                                                                                                                                    000000000000000000000000000000000000000000                                                                                                                                                                                     
14520520991860000000040000000000700135214535016900000004070022000000593770000005597400016870000356000041200000000                                                                                                                                                                                    000000000000000000000000000000000000000000                                                                                                                                                                                     
14050106719190000000040000000000700134327835016900000003252022000000474520000004473300013470000356000041200000000                                                                                                                                                                                    000000000000000000000000000000000000000000                                                                                                                                                                                     
13925115789860000000040000000000700135240435016900000004172022000000608740000005738600017290000356000041200000000                                                                                                                                                                                    000000000000000000000000000000000000000000                                                                                                                                                                                     
12628216543700000000040000000000700135236635016900000002826022000000412260000003886400011700000356000041200000000                                                                                                                                                                                    000000000000000000000000000000000000000000                                                                                                                                                                                     
12624213561930000000040000000000700135181535016900000002052022000000299390000002822500008490000356000041200000000                                                                                                                                                                                    000000000000000000000000000000000000000000                                                                                                                                                                                     
14010821295310004010840000000000700135237435016900000001006022000000146790000001383800004170000356000041200000000                                                                                                                                                                                    000000000000000000000000000000000000000000                                                                                                                                                                                     
14080666696200004080640000000000700135242035016900000002921022000000426190000004017500012120000356000041200000000                                                                                                                                                                                    000000000000000000000000000000000000000000                                                                                                                                                                                     
12500017449050000000040000000000700135278135016900000001648022000000240390000002266200006820000356000041300000000                                                                                                                                                                                    000000000000000000000000000000000000000000                                                                                                                                                                                     
12500004926210000000040000000000700135238235016900000002508021000000355100000003348600009970000355000041300000000                                                                                                                                                                                    000000000000000000000000000000000000000000                                                                                                                                                                                     
11760017434880000000040000000000700135207235016900000001768022000000257940000002431700007310000356000041200000000                                                                                                                                                                                    000000000000000000000000000000000000000000                                                                                                                                                                                     
19907254855410009907240000000000700135182335016900000006623022000000966250000009108700027450000356000041200000000                                                                                                                                                                                    000000000000000000000000000000000000000000                                                                                                                                                                                     
11600042817560001600040000000000700135154835016900000001043022000000152190000001434800004310000356000041200000000                                                                                                                                                                                    000000000000000000000000000000000000000000                                                                                                                                                                                     
12623115599040000000040000000000700135280335016900000006684022000000975140000009192700027690000356000041200000000                                                                                                                                                                                    000000000000000000000000000000000000000000                                                                                                                                                                                     
19907213525790000000040000000000700135239035016900000006308022000000920410000008676800026120000356000041200000000                                                                                                                                                                                    000000000000000000000000000000000000000000                                                                                                                                                                                     
14080613906530000000040000000000700135282135016900000006105021000000864420000008151500024290000355000041300000000                                                                                                                                                                                    000000000000000000000000000000000000000000                                                                                                                                                                                     
12624211164100000000040000000000700135209935016900000001836022000000267910000002525600007600000356000041200000000                                                                                                                                                                                    000000000000000000000000000000000000000000                                                                                                                                                                                     
14080635333440004080640000000000700135161035016900000001526022000000222680000002099100006330000356000041200000000                                                                                                                                                                                    000000000000000000000000000000000000000000                                                                                                                                                                                     
12011501739530000000040000000000700135167135016900000001881021000000266370000002511700007500000355000041300000000                                                                                                                                                                                    000000000000000000000000000000000000000000                                                                                                                                                                                     
12500017455670000000040000000000700135157235016900000001668022000000243300000002293200006940000356000041300000000                                                                                                                                                                                    000000000000000000000000000000000000000000                                                                                                                                                                                     
12500005661960000000040000000000700135224235016900000001194019000000158170000001492800004320000353000041400000000                                                                                                                                                                                    000000000000000000000000000000000000000000                                                                                                                                                                                     
12624538628360002624540000000000700135158035016900000001417022000000206760000001949100005880000356000041200000000                                                                                                                                                                                    000000000000000000000000000000000000000000                                                                                                                                                                                     
12627904227770000000040000000000700135171835016900000003909020000000535970000005056500014830000354000041400000000                                                                                                                                                                                    000000000000000000000000000000000000000000                                                                                                                                                                                     
19907242413390009907240000000000700135162935016900000002047022000000298600000002814900008480000356000041300000000                                                                                                                                                                                    000000000000000000000000000000000000000000                                                                                                                                                                                     
12500005708400000000040000000000700135138635016900000001735021000000245650000002316500006890000355000041300000000                                                                                                                                                                                    000000000000000000000000000000000000000000                                                                                                                                                                                     
12641411633410000000040000000000700135213735016900000002050022000000299150000002820300008480000356000041200000000                                                                                                                                                                                    000000000000000000000000000000000000000000                                                                                                                                                                                     
15720214481140000000040000000000700135159935016900000004865022000000709830000006691800020130000356000041200000000                                                                                                                                                                                    000000000000000000000000000000000000000000                                                                                                                                                                                     
14011517421700000000040000000000700135217135016900000001421022000000207380000001955100005880000356000041200000000                                                                                                                                                                                    000000000000000000000000000000000000000000                                                                                                                                                                                     
12624216500690000000040000000000700135140835016900000002797022000000408070000003846900011590000356000041200000000                                                                                                                                                                                    000000000000000000000000000000000000000000                                                                                                                                                                                     
14080606954110000000040000000000700136308235016900000006719034000001253760000011788100038710000364000040700000000                                                                                                                                                                                    000000000000000000000000000000000000000000                                                                                                                                                                                     
12642419873860000000040000000000700136307435016900000002769022000000404020000003808600011480000356000041200000000                                                                                                                                                                                    000000000000000000000000000000000000000000                                                                                                                                                                                     
14080604403180000000040000000000700134989635016900000002651021000000375340000003539500010540000355000041300000000                                                                                                                                                                                    000000000000000000000000000000000000000000                                                                                                                                                                                     
12627904220790000000040000000000700135228535016900000002569019000000340360000003212500009270000353000041400000000                                                                                                                                                                                    000000000000000000000000000000000000000000                                                                                                                                                                                     
12624217914400000000040000000000700135212935016900000001656022000000241550000002277000006870000356000041300000000                                                                                                                                                                                    000000000000000000000000000000000000000000                                                                                                                                                                                     
12623121493470000000040000000000700135211035016900000006825022000000995730000009386400028310000356000041200000000                                                                                                                                                                                    000000000000000000000000000000000000000000                                                                                                                                                                                     
14080606933550000000040000000000700135210235016900000006679022000000974510000009186700027670000356000041200000000                                                                                                                                                                                    000000000000000000000000000000000000000000                                                                                                                                                                                     
12500004971040000000040000000000700135225035016900000002085021000000295210000002784100008260000355000041300000000                                                                                                                                                                                    000000000000000000000000000000000000000000                                                                                                                                                                                     
14080602011200004080640000000000700136127635016900000001345029000000231130000002174800006970000361000040900000000                                                                                                                                                                                    000000000000000000000000000000000000000000                                                                                                                                                                                     
12500017435500000000040000000000700135155635016900000001681022000000245310000002312500006970000356000041200000000                                                                                                                                                                                    000000000000000000000000000000000000000000                                                                                                                                                                                     
11600000784400000000040000000000700135175035016900000001501018000000191510000001808500005130000352000041500000000                                                                                                                                                                                    000000000000000000000000000000000000000000                                                                                                                                                                                     
12624549212750002624540000000000700135156435016900000002187022000000319080000003008000009060000356000041200000000                                                                                                                                                                                    000000000000000000000000000000000000000000                                                                                                                                                                                     
12500004780410000000040000000000700135208035016900000002028022000000295820000002788500008420000356000041300000000                                                                                                                                                                                    000000000000000000000000000000000000000000                                                                                                                                                                                     
15720209474620000000040000000000700135042835016900000011675004000000424780000004075500004950000293000042400000000                                                                                                                                                                                    000000000000000000000000000000000000000000                                                                                                                                                                                     
12642221252060000000040000000000700134953535016900000004526022000000660320000006224700018760000356000041200000000                                                                                                                                                                                    000000000000000000000000000000000000000000                                                                                                                                                                                     
14080610195310000000040000000000700134975635016900000001928022000000281310000002651900007990000356000041200000000                                                                                                                                                                                    000000000000000000000000000000000000000000                                                                                                                                                                                     
11330041241710001330040000000000700134974835016900000001521022000000221940000002092100006310000356000041200000000                                                                                                                                                                                    000000000000000000000000000000000000000000                                                                                                                                                                                     
14520521070900000000040000000000700134979935016900000002866022000000418110000003941500011880000356000041200000000                                                                                                                                                                                    000000000000000000000000000000000000000000                                                                                                                                                                                     
11330019302490001330040000000000700134965935016900000009727022000001419230000013378800040330000356000041200000000                                                                                                                                                                                    000000000000000000000000000000000000000000                                                                                                                                                                                     
12011501747160000000040000000000700135082735016900000006568021000000930040000008770300026120000355000041300000000                                                                                                                                                                                    000000000000000000000000000000000000000000                                                                                                                                                                                     
14080640251720004080640000000000700134952735016900000003391022000000494770000004664300014040000356000041200000000                                                                                                                                                                                    000000000000000000000000000000000000000000                                                                                                                                                                                     
12643435307810000000040000000000700134898935016900000003728022000000543960000005127900015450000356000041200000000                                                                                                                                                                                    000000000000000000000000000000000000000000                                                                                                                                                                                     
12643712127010000000040000000000700134970535016900000006835022000000997260000009401200028320000356000041200000000                                                                                                                                                                                    000000000000000000000000000000000000000000                                                                                                                                                                                     
12645316514830000000040000000000700134976435016900000003074022000000448540000004228100012760000356000041200000000                                                                                                                                                                                    000000000000000000000000000000000000000000                                                                                                                                                                                     
12643218951560000000040000000000700134967535016900000001879022000000274160000002584400007800000356000041200000000                                                                                                                                                                                    000000000000000000000000000000000000000000                                                                                                                                                                                     
12624518888100000000040000000000700134948935016900000002623022000000382680000003607600010860000356000041200000000                                                                                                                                                                                    000000000000000000000000000000000000000000                                                                                                                                                                                     
12625117651930000000040000000000700134973135016900000002493022000000363790000003429600010310000356000041200000000                                                                                                                                                                                    000000000000000000000000000000000000000000                                                                                                                                                                                     
12640828141120000000040000000000700134972135016900000003068022000000447590000004219200012730000356000041200000000                                                                                                                                                                                    000000000000000000000000000000000000000000                                                                                                                                                                                     
12500018125040000000040000000000700135078935016900000004593021000000650400000006133500018250000355000041300000000                                                                                                                                                                                    000000000000000000000000000000000000000000                                                                                                                                                                                     
14080607007930000000040000000000700134901235016900000004004022000000584250000005507700016600000356000041200000000                                                                                                                                                                                    000000000000000000000000000000000000000000                                                                                                                                                                                     
15720217823520000000040000000000700134960835016900000005283022000000770830000007266400021910000356000041200000000                                                                                                                                                                                    000000000000000000000000000000000000000000                                                                                                                                                                                     
12011501745920000000040000000000700134946235016900000002656022000000387540000003653300011010000356000041200000000                                                                                                                                                                                    000000000000000000000000000000000000000000                                                                                                                                                                                     
12627429488670000000040000000000700134961635016900000004874022000000711080000006703500020180000356000041200000000                                                                                                                                                                                    000000000000000000000000000000000000000000                                                                                                                                                                                     
15720209423370000000040000000000700134956135016900000003491022000000509410000004802100014480000356000041200000000                                                                                                                                                                                    000000000000000000000000000000000000000000                                                                                                                                                                                     
12500014283370000000040000000000700134981035016900000001926022000000281010000002649000007980000356000041200000000                                                                                                                                                                                    000000000000000000000000000000000000000000                                                                                                                                                                                     
12628432146430000000040000000000700134971335016900000001511022000000220500000002078600006260000356000041200000000                                                                                                                                                                                    000000000000000000000000000000000000000000                                                                                                                                                                                     
12627921602450000000040000000000700134958635016900000002920022000000426080000004016500012110000356000041200000000                                                                                                                                                                                    000000000000000000000000000000000000000000                                                                                                                                                                                     
12640130053090000000040000000000700134977235016900000002272022000000331560000003125400009440000356000041200000000                                                                                                                                                                                    000000000000000000000000000000000000000000                                                                                                                                                                                     
15720209417120000000040000000000700134902035016900000003313022000000483410000004557000013740000356000041200000000                                                                                                                                                                                    000000000000000000000000000000000000000000                                                                                                                                                                                     
12641612317930000000040000000000700134955135016900000005447022000000794700000007491500022580000356000041200000000                                                                                                                                                                                    000000000000000000000000000000000000000000                                                                                                                                                                                     
12640510097430000000040000000000700134982935016900000002661022000000388290000003660400011020000356000041200000000                                                                                                                                                                                    000000000000000000000000000000000000000000                                                                                                                                                                                     
12500017337850000000040000000000700134949735016900000001510022000000220270000002076400006260000356000041300000000                                                                                                                                                                                    000000000000000000000000000000000000000000                                                                                                                                                                                     
14011517115290000000040000000000700134959435016900000002257022000000329230000003103700009340000356000041300000000                                                                                                                                                                                    000000000000000000000000000000000000000000                                                                                                                                                                                     
12626821193140000000040000000000700134983735016900000001090022000000159100000001500000004510000356000041200000000                                                                                                                                                                                    000000000000000000000000000000000000000000                                                                                                                                                                                     
12627114235110000000040000000000700134966735016900000003561022000000519620000004898300014770000356000041200000000                                                                                                                                                                                    000000000000000000000000000000000000000000                                                                                                                                                                                     
12643030759170000000040000000000700134962435016900000004007022000000584600000005510900016620000356000041200000000                                                                                                                                                                                    000000000000000000000000000000000000000000                                                                                                                                                                                     
12645512998880000000040000000000700134963235016900000002232022000000325640000003069700009250000356000041200000000                                                                                                                                                                                    000000000000000000000000000000000000000000                                                                                                                                                                                     
15720264426500005720240000000000700134325135016900000006702005000000299220000002867000003870000304000042300000000                                                                                                                                                                                    000000000000000000000000000000000000000000                                                                                                                                                                                     
12623202839840000000040000000000700134991835016900000002778019000000367930000003472600010030000353000041500000000                                                                                                                                                                                    000000000000000000000000000000000000000000                                                                                                                                                                                     
14080633067470004080640000000000700134951935016900000001383022000000201720000001901500005740000356000041300000000                                                                                                                                                                                    000000000000000000000000000000000000000000                                                                                                                                                                                     
13080234198860003080240000000000700134978035016900000005690022000000830230000007826500023580000356000041200000000                                                                                                                                                                                    000000000000000000000000000000000000000000                                                                                                                                                                                     
12624119154720000000040000000000700134957835016900000001270022000000185310000001746900005260000356000041200000000                                                                                                                                                                                    000000000000000000000000000000000000000000                                                                                                                                                                                     
12011504554500000000040000000000700136293035016900000002001021000000283270000002671200007960000355000041300000000                                                                                                                                                                                    000000000000000000000000000000000000000000                                                                                                                                                                                     
15720208792230000000040000000000700135040135016900000003446019000000456460000004308300012440000353000041400000000                                                                                                                                                                                    000000000000000000000000000000000000000000                                                                                                                                                                                     
12500061810740002500040000000000700134954335016900000003096022000000451720000004258400012820000356000041200000000                                                                                                                                                                                    000000000000000000000000000000000000000000                                                                                                                                                                                     
15720209434430000000040000000000700134950035016900000004767022000000695460000006556200019730000356000041200000000                                                                                                                                                                                    000000000000000000000000000000000000000000                                                                                                                                                                                     
12623610668160000000040000000000700134388135016900000001864022000000271970000002563900007720000356000041200000000                                                                                                                                                                                    000000000000000000000000000000000000000000                                                                                                                                                                                     
12620106774010000000040000000000700134900435016900000002069022000000301900000002846000008570000356000041200000000                                                                                                                                                                                    000000000000000000000000000000000000000000                                                                                                                                                                                     
12011526668470002011540000000000700134969135016900000004724022000000689310000006498200019570000356000041200000000                                                                                                                                                                                    000000000000000000000000000000000000000000                                                                                                                                                                                     
12500030945370002500040000000000700134643935016900000002555018000000326080000003079200008730000352000041500000000                                                                                                                                                                                    000000000000000000000000000000000000000000                                                                                                                                                                                     
11500019262650000000040000000000700134778835016900000003034022000000442650000004172700012590000356000041200000000                                                                                                                                                                                    000000000000000000000000000000000000000000                                                                                                                                                                                     
19907211602980000000040000000000700134790735016900000002391022000000348800000003288300009890000356000041200000000                                                                                                                                                                                    000000000000000000000000000000000000000000                                                                                                                                                                                     
12635017661530000000040000000000700134791535016900000002520022000000367630000003465800010420000356000041200000000                                                                                                                                                                                    000000000000000000000000000000000000000000                                                                                                                                                                                     
14080652789110004080640000000000700136346535016900000002128046000000451840000004243200014460000367000040300000000                                                                                                                                                                                    000000000000000000000000000000000000000000                                                                                                                                                                                     
12626721395170000000040000000000700134322735016900000002247022000000327770000003089700009320000356000041300000000                                                                                                                                                                                    000000000000000000000000000000000000000000                                                                                                                                                                                     
12623414744470000000040000000000700136278735016900000002228029000000382900000003603300011500000361000040900000000                                                                                                                                                                                    000000000000000000000000000000000000000000                                                                                                                                                                                     
19907253790160009907240000000000700134782635016900000001440022000000210170000001981200005970000356000041200000000                                                                                                                                                                                    000000000000000000000000000000000000000000                                                                                                                                                                                     
12625521215280000000040000000000700134783435016900000002390022000000348710000003287400009890000356000041200000000                                                                                                                                                                                    000000000000000000000000000000000000000000                                                                                                                                                                                     
12624219604050000000040000000000700134780135016900000001619022000000236190000002226500006710000356000041200000000                                                                                                                                                                                    000000000000000000000000000000000000000000                                                                                                                                                                                     
12623112883300000000040000000000700135684135016900000003551005000000158530000001519000002050000304000042300000000                                                                                                                                                                                    000000000000000000000000000000000000000000                                                                                                                                                                                     
19907213880950000000040000000000700134301435016900000004687022000000683860000006447000019390000356000041200000000                                                                                                                                                                                    000000000000000000000000000000000000000000                                                                                                                                                                                     
19907214067700000000040000000000700133847935016900000006640019000000879530000008301200023990000353000041400000000                                                                                                                                                                                    000000000000000000000000000000000000000000                                                                                                                                                                                     
13080214556310000000040000000000700134337535016900000004688021000000663720000006259300018610000355000041300000000                                                                                                                                                                                    000000000000000000000000000000000000000000                                                                                                                                                                                     
15720216374530000000040000000000700134794135016900000004113022000000600130000005657300017050000356000041200000000                                                                                                                                                                                    000000000000000000000000000000000000000000                                                                                                                                                                                     
12627916381510000000040000000000700134333235016900000006433022000000938580000008847700026680000356000041200000000                                                                                                                                                                                    000000000000000000000000000000000000000000                                                                                                                                                                                     
12625516467380000000040000000000700133930035016900000003140022000000458070000004318200013010000356000041200000000                                                                                                                                                                                    000000000000000000000000000000000000000000                                                                                                                                                                                     
12011501745250000000040000000000700134675735016900000006866018000000876260000008274600023470000352000041500000000                                                                                                                                                                                    000000000000000000000000000000000000000000                                                                                                                                                                                     
12643021171080000000040000000000700134334035016900000004741022000000691690000006520500019650000356000041200000000                                                                                                                                                                                    000000000000000000000000000000000000000000                                                                                                                                                                                     
12624426808620000000040000000000700134785035016900000003937022000000574390000005414700016310000356000041200000000                                                                                                                                                                                    000000000000000000000000000000000000000000                                                                                                                                                                                     
12627231403990000000040000000000700134323535016900000003974022000000579810000005465700016480000356000041200000000                                                                                                                                                                                    000000000000000000000000000000000000000000                                                                                                                                                                                     
12011521543480000000040000000000700134326135016900000002612022000000381070000003592300010830000356000041200000000                                                                                                                                                                                    000000000000000000000000000000000000000000                                                                                                                                                                                     
12640519776730000000040000000000700134321935016900000003008022000000438880000004137400012450000356000041200000000                                                                                                                                                                                    000000000000000000000000000000000000000000                                                                                                                                                                                     
12623814797050000000040000000000700133928935016900000003012022000000439460000004142800012480000356000041200000000                                                                                                                                                                                    000000000000000000000000000000000000000000                                                                                                                                                                                     
12641823848790000000040000000000700134020135016900000002931022000000427650000004031500012140000356000041200000000                                                                                                                                                                                    000000000000000000000000000000000000000000                                                                                                                                                                                     
12642719026240000000040000000000700134329435016900000002832022000000413130000003894700011720000356000041200000000                                                                                                                                                                                    000000000000000000000000000000000000000000                                                                                                                                                                                     
12644711811780000000040000000000700134319735016900000002832022000000413130000003894700011720000356000041200000000                                                                                                                                                                                    000000000000000000000000000000000000000000                                                                                                                                                                                     
19907221703150000000040000000000700134793135016900000002440022000000356030000003356300010110000356000041200000000                                                                                                                                                                                    000000000000000000000000000000000000000000                                                                                                                                                                                     
12623119885640000000040000000000700134786935016900000002325022000000339260000003198100009640000356000041200000000                                                                                                                                                                                    000000000000000000000000000000000000000000                                                                                                                                                                                     
12626211394150000000040000000000700134787735016900000001990022000000290310000002736500008260000356000041300000000                                                                                                                                                                                    000000000000000000000000000000000000000000                                                                                                                                                                                     
12640321139990000000040000000000700134332435016900000001908022000000278310000002623800007890000356000041300000000                                                                                                                                                                                    000000000000000000000000000000000000000000                                                                                                                                                                                     
13800029021070000000040000000000700133789835016900000001752022000000255580000002409400007250000356000041200000000                                                                                                                                                                                    000000000000000000000000000000000000000000                                                                                                                                                                                     
12500017501570000000040000000000700134792335016900000001694022000000247210000002330400007020000356000041200000000                                                                                                                                                                                    000000000000000000000000000000000000000000                                                                                                                                                                                     
13320017009800000000040000000000700134320035016900000001670022000000243700000002297100006940000356000041200000000                                                                                                                                                                                    000000000000000000000000000000000000000000                                                                                                                                                                                     
12627115647530000000040000000000700133886135016900000001615022000000235560000002220600006690000356000041300000000                                                                                                                                                                                    000000000000000000000000000000000000000000                                                                                                                                                                                     
12500017393850000000040000000000700133637935016900000001520022000000221820000002091200006290000356000041200000000                                                                                                                                                                                    000000000000000000000000000000000000000000                                                                                                                                                                                     
12624111614720000000040000000000700134797435016900000001252022000000182640000001721500005210000356000041300000000                                                                                                                                                                                    000000000000000000000000000000000000000000                                                                                                                                                                                     
12624031172350002624040000000000700134788535016900000002061022000000300710000002835000008520000356000041200000000                                                                                                                                                                                    000000000000000000000000000000000000000000                                                                                                                                                                                     
12500061075240002500040000000000700134789335016900000002056022000000299910000002827300008510000356000041300000000                                                                                                                                                                                    000000000000000000000000000000000000000000                                                                                                                                                                                     
12100049353730002100040000000000700134330835016900000002060022000000300540000002833400008520000356000041200000000                                                                                                                                                                                    000000000000000000000000000000000000000000                                                                                                                                                                                     
12624539633140002624540000000000700134318935016900000003309022000000482740000004550500013730000356000041200000000                                                                                                                                                                                    000000000000000000000000000000000000000000                                                                                                                                                                                     
14080651122220004080640000000000700134331635016900000002005022000000292510000002757400008310000356000041200000000                                                                                                                                                                                    000000000000000000000000000000000000000000                                                                                                                                                                                     
12500022412260002500040000000000700134781835016900000001253022000000182840000001723400005210000356000041200000000                                                                                                                                                                                    000000000000000000000000000000000000000000                                                                                                                                                                                     
14220107237540000000040000000000700134328635016900000001894022000000276400000002605500007860000356000041200000000                                                                                                                                                                                    000000000000000000000000000000000000000000                                                                                                                                                                                     
14080656273030004080640000000000700134324335016900000005920022000000863750000008142100024570000356000041200000000                                                                                                                                                                                    000000000000000000000000000000000000000000                                                                                                                                                                                     
12626221360900000000040000000000700134654435016900000006385022000000931620000008782400026450000356000041200000000                                                                                                                                                                                    000000000000000000000000000000000000000000                                                                                                                                                                                     
12500062221530002500040000000000700134784235016900000001938022000000282770000002665800008010000356000041200000000                                                                                                                                                                                    000000000000000000000000000000000000000000                                                                                                                                                                                     
12620126421650000000040000000000700134597135016900000003875022000000565430000005330300016050000356000041200000000                                                                                                                                                                                    000000000000000000000000000000000000000000                                                                                                                                                                                     
12011501744390000000040000000000700134779635016900000005053022000000737210000006949600020940000356000041200000000                                                                                                                                                                                    000000000000000000000000000000000000000000                                                                                                                                                                                     
11500054366990001500040000000000700133833935016900000001001022000000146030000001376500004160000356000041300000000                                                                                                                                                                                    000000000000000000000000000000000000000000                                                                                                                                                                                     
14220109443510004220140000000000700133883535016900000001338022000000195260000001840700005540000356000041200000000                                                                                                                                                                                    000000000000000000000000000000000000000000                                                                                                                                                                                     
12640609921680000000040000000000700134509235016900000001630022000000237810000002241900006750000356000041200000000                                                                                                                                                                                    000000000000000000000000000000000000000000                                                                                                                                                                                     
12500014281990000000040000000000700134696135016900000001933022000000281990000002658500007990000356000041200000000                                                                                                                                                                                    000000000000000000000000000000000000000000                                                                                                                                                                                     
12641220550020000000040000000000700133931935016900000001783022000000260150000002452600007370000356000041200000000                                                                                                                                                                                    000000000000000000000000000000000000000000                                                                                                                                                                                     
12623114217660000000040000000000700133885135016900000001437022000000209650000001976500005940000356000041200000000                                                                                                                                                                                    000000000000000000000000000000000000000000                                                                                                                                                                                     
12623618601610000000040000000000700133929735016900000002756022000000402120000003790700011430000356000041200000000                                                                                                                                                                                    000000000000000000000000000000000000000000                                                                                                                                                                                     
12500015310620000000040000000000700134496735016900000001773022000000258660000002438300007350000356000041200000000                                                                                                                                                                                    000000000000000000000000000000000000000000                                                                                                                                                                                     
12000023559550000000040000000000700134504135016900000002715022000000396070000003733900011240000356000041200000000                                                                                                                                                                                    000000000000000000000000000000000000000000                                                                                                                                                                                     
19907230023140000000040000000000700134460635016900000003110022000000453780000004277600012910000356000041200000000                                                                                                                                                                                    000000000000000000000000000000000000000000                                                                                                                                                                                     
14010806632960000000040000000000700134442835016900000003359022000000490020000004619300013930000356000041200000000                                                                                                                                                                                    000000000000000000000000000000000000000000                                                                                                                                                                                     
15720216950330000000040000000000700134200135016900000002938003000000081690000000784900000840000277000042600000000                                                                                                                                                                                    000000000000000000000000000000000000000000                                                                                                                                                                                     
12624230577470002624240000000000700134713335016900000001770018000000225850000002132700006050000352000041500000000                                                                                                                                                                                    000000000000000000000000000000000000000000                                                                                                                                                                                     
12640110490530000000040000000000700134391135016900000002661022000000388290000003660400011020000356000041200000000                                                                                                                                                                                    000000000000000000000000000000000000000000                                                                                                                                                                                     
12628011374350000000040000000000700134374135016900000001976022000000288340000002718200008190000356000041200000000                                                                                                                                                                                    000000000000000000000000000000000000000000                                                                                                                                                                                     
12626211391420000000040000000000700134652835016900000001797022000000262160000002471400007440000356000041200000000                                                                                                                                                                                    000000000000000000000000000000000000000000                                                                                                                                                                                     
12640811495160000000040000000000700134512235016900000004488022000000654760000006172300018610000356000041200000000                                                                                                                                                                                    000000000000000000000000000000000000000000                                                                                                                                                                                     
12643912582550000000040000000000700134653635016900000002555022000000372810000003514200010610000356000041200000000                                                                                                                                                                                    000000000000000000000000000000000000000000                                                                                                                                                                                     
19907214004450000000040000000000700134715135016900000008481015000000949620000008984400023730000347000041700000000                                                                                                                                                                                    000000000000000000000000000000000000000000                                                                                                                                                                                     
12626015690480000000040000000000700134599835016900000005418022000000790470000007451900022430000356000041200000000                                                                                                                                                                                    000000000000000000000000000000000000000000                                                                                                                                                                                     
12500015819890000000040000000000700134446035016900000001738022000000253590000002390600007200000356000041200000000                                                                                                                                                                                    000000000000000000000000000000000000000000                                                                                                                                                                                     
12500017464780000000040000000000700134693535016900000001663022000000242580000002286500006910000356000041300000000                                                                                                                                                                                    000000000000000000000000000000000000000000                                                                                                                                                                                     
19907218178020000000040000000000700134472135016900000005516022000000804800000007587100022830000356000041200000000                                                                                                                                                                                    000000000000000000000000000000000000000000                                                                                                                                                                                     
19907218322640000000040000000000700134469135016900000003242022000000473020000004459100013440000356000041200000000                                                                                                                                                                                    000000000000000000000000000000000000000000                                                                                                                                                                                     
19907221644450000000040000000000700136339235016900000004600049000000998610000009377200032030000368000040300000000                                                                                                                                                                                    000000000000000000000000000000000000000000                                                                                                                                                                                     
12624522598220000000040000000000700134377435016900000001926022000000281010000002649000007980000356000041200000000                                                                                                                                                                                    000000000000000000000000000000000000000000                                                                                                                                                                                     
13620104635730000000040000000000700134471135016900000004866022000000709930000006692800020130000356000041200000000                                                                                                                                                                                    000000000000000000000000000000000000000000                                                                                                                                                                                     
14080606957950000000040000000000700134710935016900000003466019000000459100000004333200012510000353000041400000000                                                                                                                                                                                    000000000000000000000000000000000000000000                                                                                                                                                                                     
15720208814870000000040000000000700135284635016900000001795009000000134070000001277500002450000330000042000000000                                                                                                                                                                                    000000000000000000000000000000000000000000                                                                                                                                                                                     
15720209410170000000040000000000700134448735016900000003563022000000519910000004901100014770000356000041200000000                                                                                                                                                                                    000000000000000000000000000000000000000000                                                                                                                                                                                     
14080600983260000000040000000000700134481935016900000001795021000000254190000002397100007130000355000041300000000                                                                                                                                                                                    000000000000000000000000000000000000000000                                                                                                                                                                                     
12643318253850000000040000000000700134697835016900000001213022000000177000000001668600005020000356000041200000000                                                                                                                                                                                    000000000000000000000000000000000000000000                                                                                                                                                                                     
14080603454580004080640000000000700134602135016900000001376022000000200720000001892200005700000356000041300000000                                                                                                                                                                                    000000000000000000000000000000000000000000                                                                                                                                                                                     
12100058075490002100040000000000700134695135016900000002448022000000357150000003367100010120000356000041200000000                                                                                                                                                                                    000000000000000000000000000000000000000000                                                                                                                                                                                     
19907242073940009907240000000000700134492435016900000002207022000000322070000003036200009140000356000041200000000                                                                                                                                                                                    000000000000000000000000000000000000000000                                                                                                                                                                                     
19907242179000009907240000000000700134438135016900000002313022000000337420000003181000009570000356000041200000000                                                                                                                                                                                    000000000000000000000000000000000000000000                                                                                                                                                                                     
12642429627890000000040000000000700133524035016900000005635011000000496340000004715500010440000337000041900000000                                                                                                                                                                                    000000000000000000000000000000000000000000                                                                                                                                                                                     
12624417310890000000040000000000700134468135016900000002191022000000319690000003013700009080000356000041200000000                                                                                                                                                                                    000000000000000000000000000000000000000000                                                                                                                                                                                     
13620706938120000000040000000000700134454135016900000003692022000000538660000005078000015290000356000041200000000                                                                                                                                                                                    000000000000000000000000000000000000000000                                                                                                                                                                                     
11600059264240001600040000000000700134600535016900000001416022000000206660000001948300005860000356000041200000000                                                                                                                                                                                    000000000000000000000000000000000000000000                                                                                                                                                                                     
14080629116800004080640000000000700134655235016900000001413022000000206100000001943000005850000356000041300000000                                                                                                                                                                                    000000000000000000000000000000000000000000                                                                                                                                                                                     
19907242224310009907240000000000700134699435016900000002390022000000348770000003288000009890000356000041200000000                                                                                                                                                                                    000000000000000000000000000000000000000000                                                                                                                                                                                     
14080658833930004080640000000000700134500935016900000003721022000000542860000005117500015420000356000041200000000                                                                                                                                                                                    000000000000000000000000000000000000000000                                                                                                                                                                                     
15720236903930005720240000000000700134692735016900000002152022000000314000000002960000008920000356000041200000000                                                                                                                                                                                    000000000000000000000000000000000000000000                                                                                                                                                                                     
11760010119790000000040000000000700133832035016900000003052022000000445330000004198200012630000356000041200000000                                                                                                                                                                                    000000000000000000000000000000000000000000                                                                                                                                                                                     
12011501838670000000040000000000700134704435016900000006700021000000948720000008946800026620000355000041300000000                                                                                                                                                                                    000000000000000000000000000000000000000000                                                                                                                                                                                     
14080633540160004080640000000000700134470335016900000001772022000000258510000002437100007330000356000041200000000                                                                                                                                                                                    000000000000000000000000000000000000000000                                                                                                                                                                                     
19907266926210009907240000000000700134457635016900000002596022000000378720000003570000010770000356000041200000000                                                                                                                                                                                    000000000000000000000000000000000000000000                                                                                                                                                                                     
