020240307652226000116CONSIGSIAPE                                                                                                                                                                                                                                                                                                                                                                                                                                                                                                                                         
19907213852290000000040000000000700149010635016800000005520005000000249250000002395300003230000274000038400000000                                                                                                                                                                                    000000000000000000000000000000000000000000                                                                                                                                                                                     
12500005764200000000040000000000700149183835016800000002074005000000093640000000900000001200000274000038400000000                                                                                                                                                                                    000000000000000000000000000000000000000000                                                                                                                                                                                     
11600000800580000000040000000000700149163335016800000001625007000000099360000000952400001530000288000038200000000                                                                                                                                                                                    000000000000000000000000000000000000000000                                                                                                                                                                                     
19907213848090000000040000000000700148733435016800000003242013000000333980000003175400007740000309000037900000000                                                                                                                                                                                    000000000000000000000000000000000000000000                                                                                                                                                                                     
12624217914400000000040000000000700148493935016800000001536007000000093940000000900400001450000288000038100000000                                                                                                                                                                                    000000000000000000000000000000000000000000                                                                                                                                                                                     
13925117758600000000040000000000700149462435016800000003701025000000609990000005763400017770000323000037100000000                                                                                                                                                                                    000000000000000000000000000000000000000000                                                                                                                                                                                     
14080602248050000000040000000000700149385735016800000001562008000000107390000001027800001810000293000038100000000                                                                                                                                                                                    000000000000000000000000000000000000000000                                                                                                                                                                                     
19907213927440000000040000000000700149105635016800000003447003000000096580000000930600001000000249000038800000000                                                                                                                                                                                    000000000000000000000000000000000000000000                                                                                                                                                                                     
19907214048120000000040000000000700149384935016800000003564013000000367170000003490900008520000308000037900000000                                                                                                                                                                                    000000000000000000000000000000000000000000                                                                                                                                                                                     
12011504554500000000040000000000700148699035016800000001938015000000223250000002119000005540000312000037800000000                                                                                                                                                                                    000000000000000000000000000000000000000000                                                                                                                                                                                     
12500005186350000000040000000000700149311335016800000001672006000000089120000000855300001270000281000038200000000                                                                                                                                                                                    000000000000000000000000000000000000000000                                                                                                                                                                                     
19907214043880000000040000000000700149333435016800000003665014000000400190000003801200009650000311000037900000000                                                                                                                                                                                    000000000000000000000000000000000000000000                                                                                                                                                                                     
19907212965440000000040000000000700148964735016800000003098014000000338340000003213900008140000310000037800000000                                                                                                                                                                                    000000000000000000000000000000000000000000                                                                                                                                                                                     
12623414744470000000040000000000700148362235016800000002165010000000180020000001718000003540000301000038100000000                                                                                                                                                                                    000000000000000000000000000000000000000000                                                                                                                                                                                     
19907213880950000000040000000000700148658335016800000004582016000000554120000005255600014130000314000037700000000                                                                                                                                                                                    000000000000000000000000000000000000000000                                                                                                                                                                                     
19907213971500000000040000000000700149108035016800000003456013000000356040000003385100008260000308000037900000000                                                                                                                                                                                    000000000000000000000000000000000000000000                                                                                                                                                                                     
19907214023800000000040000000000700148947735016800000004907011000000441750000004210000009250000303000038000000000                                                                                                                                                                                    000000000000000000000000000000000000000000                                                                                                                                                                                     
19907214030160000000040000000000700149129335016800000003613012000000349150000003323500007710000306000037900000000                                                                                                                                                                                    000000000000000000000000000000000000000000                                                                                                                                                                                     
19907213959820000000040000000000700149403935016800000003155016000000381520000003618400009750000314000037700000000                                                                                                                                                                                    000000000000000000000000000000000000000000                                                                                                                                                                                     
12640817891130000000040000000000700149265635016800000001202003000000033670000000324400000350000250000039000000000                                                                                                                                                                                    000000000000000000000000000000000000000000                                                                                                                                                                                     
13320017063440000000040000000000700148824135016800000001823016000000220480000002091200005620000314000037700000000                                                                                                                                                                                    000000000000000000000000000000000000000000                                                                                                                                                                                     
12627914588180000000040000000000700149186235016800000001575016000000190500000001806800004860000314000037700000000                                                                                                                                                                                    000000000000000000000000000000000000000000                                                                                                                                                                                     
12624611583890000000040000000000700148844635016800000011217008000000771050000007379700013010000293000038100000000                                                                                                                                                                                    000000000000000000000000000000000000000000                                                                                                                                                                                     
19907213872410000000040000000000700149786035016800000003015012000000291320000002772800006460000306000038000000000                                                                                                                                                                                    000000000000000000000000000000000000000000                                                                                                                                                                                     
19907213882030000000040000000000700149777135016800000003115014000000340210000003231500008200000310000037800000000                                                                                                                                                                                    000000000000000000000000000000000000000000                                                                                                                                                                                     
19907213900930000000040000000000700149117135016800000003492013000000359770000003420600008350000308000037900000000                                                                                                                                                                                    000000000000000000000000000000000000000000                                                                                                                                                                                     
19907213925820000000040000000000700149359835016800000003530014000000385520000003661800009300000310000037900000000                                                                                                                                                                                    000000000000000000000000000000000000000000                                                                                                                                                                                     
19907213957230000000040000000000700149482935016800000003409009000000259340000002478600004730000297000038100000000                                                                                                                                                                                    000000000000000000000000000000000000000000                                                                                                                                                                                     
19907214026920000000040000000000700149223035016800000004520015000000520540000004940500012940000312000037800000000                                                                                                                                                                                    000000000000000000000000000000000000000000                                                                                                                                                                                     
14080604365320000000040000000000700149421735016800000003385025000000557880000005270800016280000323000037100000000                                                                                                                                                                                    000000000000000000000000000000000000000000                                                                                                                                                                                     
15720209045590000000040000000000700148720235016800000002198019000000301370000002853500008170000317000037500000000                                                                                                                                                                                    000000000000000000000000000000000000000000                                                                                                                                                                                     
12624503758450000000040000000000700149458635016800000005397012000000521550000004963900011580000306000038000000000                                                                                                                                                                                    000000000000000000000000000000000000000000                                                                                                                                                                                     
19907214039200000000040000000000700149434935016800000003819004000000140290000001349900001650000264000038600000000                                                                                                                                                                                    000000000000000000000000000000000000000000                                                                                                                                                                                     
19907213864970000000040000000000700149017335016800000006067006000000323270000003102600004600000282000038300000000                                                                                                                                                                                    000000000000000000000000000000000000000000                                                                                                                                                                                     
19907213837840000000040000000000700148796235016800000003400010000000282770000002698900005520000300000038000000000                                                                                                                                                                                    000000000000000000000000000000000000000000                                                                                                                                                                                     
19907213881330000000040000000000700148957435016800000003484015000000401280000003808500009980000312000037800000000                                                                                                                                                                                    000000000000000000000000000000000000000000                                                                                                                                                                                     
12643722022830000000040000000000700149696135016800000001956006000000104200000001000000001490000282000038300000000                                                                                                                                                                                    000000000000000000000000000000000000000000                                                                                                                                                                                     
19907214158870000000040000000000700149361135016800000003573015000000411480000003905200010250000312000037800000000                                                                                                                                                                                    000000000000000000000000000000000000000000                                                                                                                                                                                     
12627531327840000000040000000000700148401735016800000001896015000000218420000002073100005430000312000037800000000                                                                                                                                                                                    000000000000000000000000000000000000000000                                                                                                                                                                                     
12500025082300000000040000000000700148314235016800000002525012000000244000000002322300005420000306000038000000000                                                                                                                                                                                    000000000000000000000000000000000000000000                                                                                                                                                                                     
19907218978190000000040000000000700148477735016800000002812016000000340040000003225000008690000314000037700000000                                                                                                                                                                                    000000000000000000000000000000000000000000                                                                                                                                                                                     
19907218686230000000040000000000700148471835016800000003044042000000664750000006265200020930000329000036400000000                                                                                                                                                                                    000000000000000000000000000000000000000000                                                                                                                                                                                     
19907214174870000000040000000000700149047535016800000002992014000000326740000003103700007870000310000037900000000                                                                                                                                                                                    000000000000000000000000000000000000000000                                                                                                                                                                                     
12644821212140000000040000000000700149593035016800000002939007000000179700000001722200002810000288000038200000000                                                                                                                                                                                    000000000000000000000000000000000000000000                                                                                                                                                                                     
14010806711030000000040000000000700149226535016800000003302017000000417800000003960000010930000315000037600000000                                                                                                                                                                                    000000000000000000000000000000000000000000                                                                                                                                                                                     
19907213976520000000040000000000700149646535016800000003523013000000362930000003450600008420000309000037900000000                                                                                                                                                                                    000000000000000000000000000000000000000000                                                                                                                                                                                     
12626721247150000000040000000000700148545535016800000002203017000000278750000002642000007300000315000037600000000                                                                                                                                                                                    000000000000000000000000000000000000000000                                                                                                                                                                                     
19907214147370000000040000000000700149381435016800000002693006000000143500000001377200002050000282000038300000000                                                                                                                                                                                    000000000000000000000000000000000000000000                                                                                                                                                                                     
12624311492770000000040000000000700149275335016800000001907017000000241250000002286800006290000315000037600000000                                                                                                                                                                                    000000000000000000000000000000000000000000                                                                                                                                                                                     
11600000016000000000040000000000700148960435016800000002163014000000236230000002243900005690000310000037800000000                                                                                                                                                                                    000000000000000000000000000000000000000000                                                                                                                                                                                     
12625607481140000000040000000000700149418735016800000002621016000000316940000003005900008100000314000037700000000                                                                                                                                                                                    000000000000000000000000000000000000000000                                                                                                                                                                                     
19907213832970000000040000000000700148752035016800000004229006000000225340000002162600003210000282000038300000000                                                                                                                                                                                    000000000000000000000000000000000000000000                                                                                                                                                                                     
19907213904090000000040000000000700149104835016800000003119016000000377210000003577600009630000314000037700000000                                                                                                                                                                                    000000000000000000000000000000000000000000                                                                                                                                                                                     
12626116416660000000040000000000700149485335016800000002387007000000145960000001399000002260000288000038200000000                                                                                                                                                                                    000000000000000000000000000000000000000000                                                                                                                                                                                     
12500006388210000000040000000000700149080735016800000001343010000000111720000001066200002190000300000038000000000                                                                                                                                                                                    000000000000000000000000000000000000000000                                                                                                                                                                                     
12624311492730000000040000000000700149748835016800000001914018000000252490000002391800006740000316000037600000000                                                                                                                                                                                    000000000000000000000000000000000000000000                                                                                                                                                                                     
12624303494430000000040000000000700148911635016800000001612017000000203890000001932400005350000315000037700000000                                                                                                                                                                                    000000000000000000000000000000000000000000                                                                                                                                                                                     
13239601709900000000040000000000700148945035016800000002444012000000236190000002248100005230000306000038000000000                                                                                                                                                                                    000000000000000000000000000000000000000000                                                                                                                                                                                     
12625216416310000000040000000000700148540435016800000002420015000000278680000002644800006940000312000037800000000                                                                                                                                                                                    000000000000000000000000000000000000000000                                                                                                                                                                                     
12640823167070000000040000000000700148605235016800000001663016000000201180000001908000005140000313000037700000000                                                                                                                                                                                    000000000000000000000000000000000000000000                                                                                                                                                                                     
13320011862730000000040000000000700149072635016800000012204007000000746240000007152000011620000288000038200000000                                                                                                                                                                                    000000000000000000000000000000000000000000                                                                                                                                                                                     
12640618823340000000040000000000700148592735016800000003907010000000324890000003100700006360000301000038000000000                                                                                                                                                                                    000000000000000000000000000000000000000000                                                                                                                                                                                     
14010820084030000000040000000000700148702435016800000003966016000000479610000004548800012240000314000037700000000                                                                                                                                                                                    000000000000000000000000000000000000000000                                                                                                                                                                                     
12623710696670000000040000000000700148680135016800000002168017000000274260000002599700007150000315000037600000000                                                                                                                                                                                    000000000000000000000000000000000000000000                                                                                                                                                                                     
19907213953820000000040000000000700149670835016800000005164011000000464820000004430100009710000303000038000000000                                                                                                                                                                                    000000000000000000000000000000000000000000                                                                                                                                                                                     
12624511542400000000040000000000700149701135016800000001488016000000180010000001707200004610000313000037700000000                                                                                                                                                                                    000000000000000000000000000000000000000000                                                                                                                                                                                     
12641436219920000000040000000000700149631735016800000005012014000000547320000005198800013200000310000037900000000                                                                                                                                                                                    000000000000000000000000000000000000000000                                                                                                                                                                                     
12627021030800000000040000000000700149431435016800000002685017000000339630000003219000008890000315000037700000000                                                                                                                                                                                    000000000000000000000000000000000000000000                                                                                                                                                                                     
19907213870840000000040000000000700149101335016800000003444015000000396690000003764900009880000312000037800000000                                                                                                                                                                                    000000000000000000000000000000000000000000                                                                                                                                                                                     
19907213984750000000040000000000700149362835016800000003387014000000369930000003513900008910000310000037800000000                                                                                                                                                                                    000000000000000000000000000000000000000000                                                                                                                                                                                     
19907213938900000000040000000000700149095535016800000005241004000000192490000001852400002240000264000038600000000                                                                                                                                                                                    000000000000000000000000000000000000000000                                                                                                                                                                                     
19907219591960000000040000000000700149667835016800000005344011000000481050000004584700010060000303000038000000000                                                                                                                                                                                    000000000000000000000000000000000000000000                                                                                                                                                                                     
15720217284310000000040000000000700149697135016800000003556015000000409570000003887100010200000312000037800000000                                                                                                                                                                                    000000000000000000000000000000000000000000                                                                                                                                                                                     
14070106844300000000040000000000700148992235016800000003112004000000114310000001100000001330000264000038600000000                                                                                                                                                                                    000000000000000000000000000000000000000000                                                                                                                                                                                     
19907232162800000000040000000000700149752635016800000002263009000000172140000001645200003140000297000038100000000                                                                                                                                                                                    000000000000000000000000000000000000000000                                                                                                                                                                                     
12624517943030000000040000000000700148646135016800000001902008000000130710000001251200002190000293000038100000000                                                                                                                                                                                    000000000000000000000000000000000000000000                                                                                                                                                                                     
12629800786120000000040000000000700149028935016800000004096013000000422020000004012400009800000308000037900000000                                                                                                                                                                                    000000000000000000000000000000000000000000                                                                                                                                                                                     
19907213972760000000040000000000700149033535016800000003498016000000423010000004012000010800000314000037700000000                                                                                                                                                                                    000000000000000000000000000000000000000000                                                                                                                                                                                     
14080602215330000000040000000000700148946935016800000002602019000000356680000003377200009670000318000037500000000                                                                                                                                                                                    000000000000000000000000000000000000000000                                                                                                                                                                                     
19907214018990000000040000000000700148890135016800000003097016000000374590000003552800009560000314000037700000000                                                                                                                                                                                    000000000000000000000000000000000000000000                                                                                                                                                                                     
12628321315070000000040000000000700148455635016800000002491017000000315110000002986600008250000315000037700000000                                                                                                                                                                                    000000000000000000000000000000000000000000                                                                                                                                                                                     
12641111064710000000040000000000700149559035016800000001685009000000128180000001225100002340000297000038100000000                                                                                                                                                                                    000000000000000000000000000000000000000000                                                                                                                                                                                     
19907213858280000000040000000000700149058035016800000006086008000000418340000004003800007070000293000038100000000                                                                                                                                                                                    000000000000000000000000000000000000000000                                                                                                                                                                                     
12641320339110000000040000000000700149521335016800000001367033000000265160000002501500008100000326000036700000000                                                                                                                                                                                    000000000000000000000000000000000000000000                                                                                                                                                                                     
14011601473830000000040000000000700149353935016800000003693012000000356890000003396800007920000306000038000000000                                                                                                                                                                                    000000000000000000000000000000000000000000                                                                                                                                                                                     
19907213900410000000040000000000700148950735016800000003092016000000373980000003546900009550000314000037700000000                                                                                                                                                                                    000000000000000000000000000000000000000000                                                                                                                                                                                     
19907213893040000000040000000000700149141235016800000003529016000000426860000004048300010920000314000037700000000                                                                                                                                                                                    000000000000000000000000000000000000000000                                                                                                                                                                                     
12011512263360000000040000000000700149438135016800000001855006000000098870000000949000001390000281000038200000000                                                                                                                                                                                    000000000000000000000000000000000000000000                                                                                                                                                                                     
19907219226220000000040000000000700148489035016800000003684009000000280300000002679200005080000297000038000000000                                                                                                                                                                                    000000000000000000000000000000000000000000                                                                                                                                                                                     
19907201726720000000040000000000700148995735016800000004887004000000179490000001727200002090000264000038700000000                                                                                                                                                                                    000000000000000000000000000000000000000000                                                                                                                                                                                     
12624722804380000000040000000000700149499335016800000002256012000000217990000002074800004840000306000038000000000                                                                                                                                                                                    000000000000000000000000000000000000000000                                                                                                                                                                                     
19907213907760000000040000000000700149279635016800000003432015000000395250000003751500009810000312000037800000000                                                                                                                                                                                    000000000000000000000000000000000000000000                                                                                                                                                                                     
12624615928510000000040000000000700148643535016800000002433042000000531280000005007000016750000329000036400000000                                                                                                                                                                                    000000000000000000000000000000000000000000                                                                                                                                                                                     
90000093                                                                                                                                                                                                                                                                                                                                                                                                                                                                                                                                                                 
