020240307652226000116CONSIGSIAPE                                                                                                                                                                                                                                                                                                                                                                                                                                                                                                                                         
19907213895680000000040000000000700133805335016900000003509022000000512040000004827000014540000356000041200000000                                                                                                                                                                                    000000000000000000000000000000000000000000                                                                                                                                                                                     
19907214041250000000040000000000700149561235016900000003577073000000939180000008839200030820000333000035900000000                                                                                                                                                                                    000000000000000000000000000000000000000000                                                                                                                                                                                     
11330000136910551726540000000000700135657435016900000004366022000000636980000006005100018060000356000041200000000                                                                                                                                                                                    000000000000000000000000000000000000000000                                                                                                                                                                                     
11760011433200000000040000000000700134205035016900000003248022000000473820000004466700013450000356000041200000000                                                                                                                                                                                    000000000000000000000000000000000000000000                                                                                                                                                                                     
19907214148510513536240000000000700148585435016900000003690030000000678630000006405000020460000325000036900000000                                                                                                                                                                                    000000000000000000000000000000000000000000                                                                                                                                                                                     
12625114536120000000040000000000700149422535016900000003976020000000565060000005348000015550000319000037400000000                                                                                                                                                                                    000000000000000000000000000000000000000000                                                                                                                                                                                     
19907213994440000000040000000000700135094035016900000005614021000000794970000007496900022300000355000041300000000                                                                                                                                                                                    000000000000000000000000000000000000000000                                                                                                                                                                                     
19907214160170623460740000000000700135351635016900000001428022000000208340000001964200005890000356000041200000000                                                                                                                                                                                    000000000000000000000000000000000000000000                                                                                                                                                                                     
12623118608040000000040000000000700149700335016900000004224077000001121620000010555600036860000334000035900000000                                                                                                                                                                                    000000000000000000000000000000000000000000                                                                                                                                                                                     
19907214083850000000040000000000700133610735016900000002687022000000392080000003696100011140000356000041200000000                                                                                                                                                                                    000000000000000000000000000000000000000000                                                                                                                                                                                     
12641317995210000000040000000000700148534135016900000004837052000001151080000010841200037000000331000036200000000                                                                                                                                                                                    000000000000000000000000000000000000000000                                                                                                                                                                                     
19907213967400610988840000000000700134193335016900000002276022000000332020000003129600009460000356000041300000000                                                                                                                                                                                    000000000000000000000000000000000000000000                                                                                                                                                                                     
12624511221400000000040000000000700149673235016900000000988019000000135420000001282000003690000318000037500000000                                                                                                                                                                                    000000000000000000000000000000000000000000                                                                                                                                                                                     
12627611525080660277140000000000700148666435016900000002223010000000184900000001764600003620000300000038000000000                                                                                                                                                                                    000000000000000000000000000000000000000000                                                                                                                                                                                     
19907214162870424879140000000000700133784735016900000003228022000000470980000004439700013390000356000041200000000                                                                                                                                                                                    000000000000000000000000000000000000000000                                                                                                                                                                                     
15410007454510000000040000000000700149011435016900000003241006000000172700000001657500002450000282000038300000000                                                                                                                                                                                    000000000000000000000000000000000000000000                                                                                                                                                                                     
19907213821160567839140000000000700134234435016900000001231022000000179620000001693500005080000356000041200000000                                                                                                                                                                                    000000000000000000000000000000000000000000                                                                                                                                                                                     
11760007201480000000040000000000700148958235016900000002287076000000605570000005698800019930000334000035900000000                                                                                                                                                                                    000000000000000000000000000000000000000000                                                                                                                                                                                     
19907213953350000000040000000000700149586835016900000003575074000000941240000008858700030870000334000035900000000                                                                                                                                                                                    000000000000000000000000000000000000000000                                                                                                                                                                                     
19907214078960000000040000000000700148774135016900000001732013000000178450000001696600004150000308000037900000000                                                                                                                                                                                    000000000000000000000000000000000000000000                                                                                                                                                                                     
14080602611300042064640000000000700135234135016900000007383022000001077250000010155200030590000356000041200000000                                                                                                                                                                                    000000000000000000000000000000000000000000                                                                                                                                                                                     
14080110160180000000040000000000700148951535016900000007722003000000216330000002084500002250000250000038900000000                                                                                                                                                                                    000000000000000000000000000000000000000000                                                                                                                                                                                     
14080610655040211947140000000000700135173435016900000002983005000000133150000001275800001720000305000042300000000                                                                                                                                                                                    000000000000000000000000000000000000000000                                                                                                                                                                                     
12623903274430000000040000000000700148665635016900000000807024000000129550000001224600003720000322000037200000000                                                                                                                                                                                    000000000000000000000000000000000000000000                                                                                                                                                                                     
12623603079920000000040000000000700134226335016900000019752005000000881780000008448800011410000304000042300000000                                                                                                                                                                                    000000000000000000000000000000000000000000                                                                                                                                                                                     
12623914101360000000040000000000700149449735016900000000425029000000076740000000724500002290000324000036800000000                                                                                                                                                                                    000000000000000000000000000000000000000000                                                                                                                                                                                     
14520520991860000000040000000000700135214535016900000004070022000000593770000005597400016870000356000041200000000                                                                                                                                                                                    000000000000000000000000000000000000000000                                                                                                                                                                                     
12625121794800000000040000000000700148541235016900000002680016000000324070000003073700008270000314000037700000000                                                                                                                                                                                    000000000000000000000000000000000000000000                                                                                                                                                                                     
14010811400600270939240000000000700134228135016900000002470022000000360430000003397700010250000356000041200000000                                                                                                                                                                                    000000000000000000000000000000000000000000                                                                                                                                                                                     
19907213852290000000040000000000700149010635016800000005520005000000249250000002395300003230000274000038400000000                                                                                                                                                                                    000000000000000000000000000000000000000000                                                                                                                                                                                     
13925115789860000000040000000000700135240435016900000004172022000000608740000005738600017290000356000041200000000                                                                                                                                                                                    000000000000000000000000000000000000000000                                                                                                                                                                                     
19907213960020000000040000000000700149632535016900000006386065000001629590000015340800053090000333000036000000000                                                                                                                                                                                    000000000000000000000000000000000000000000                                                                                                                                                                                     
14010810662650212953140000000000700135237435016900000001006022000000146790000001383800004170000356000041200000000                                                                                                                                                                                    000000000000000000000000000000000000000000                                                                                                                                                                                     
14080607079600666962040000000000700135242035016900000002921022000000426190000004017500012120000356000041200000000                                                                                                                                                                                    000000000000000000000000000000000000000000                                                                                                                                                                                     
14080612014130675510140000000000700149459435016900000000556029000000100220000000946000003010000325000036900000000                                                                                                                                                                                    000000000000000000000000000000000000000000                                                                                                                                                                                     
14080611948750338825540000000000700134744335016900000001413022000000206120000001943200005850000356000041200000000                                                                                                                                                                                    000000000000000000000000000000000000000000                                                                                                                                                                                     
12500005764200000000040000000000700149183835016800000002074005000000093640000000900000001200000274000038400000000                                                                                                                                                                                    000000000000000000000000000000000000000000                                                                                                                                                                                     
19907213817110548554140000000000700135182335016900000006623022000000966250000009108700027450000356000041200000000                                                                                                                                                                                    000000000000000000000000000000000000000000                                                                                                                                                                                     
11600012946770428175640000000000700135154835016900000001043022000000152190000001434800004310000356000041200000000                                                                                                                                                                                    000000000000000000000000000000000000000000                                                                                                                                                                                     
14080612123810313469540000000000700135233135016900000001817022000000265170000002499900007520000356000041200000000                                                                                                                                                                                    000000000000000000000000000000000000000000                                                                                                                                                                                     
12645022328920000000040000000000700148420335016900000002014046000000457200000004308000014500000330000036300000000                                                                                                                                                                                    000000000000000000000000000000000000000000                                                                                                                                                                                     
12641511436080000000040000000000700135179335016900000006444022000000940230000008863500026710000356000041200000000                                                                                                                                                                                    000000000000000000000000000000000000000000                                                                                                                                                                                     
19907214153730000000040000000000700134289135016900000005730022000000835990000007880800023740000356000041200000000                                                                                                                                                                                    000000000000000000000000000000000000000000                                                                                                                                                                                     
12000001616340000000040000000000700148826835016900000001729065000000441110000004152000014420000333000036000000000                                                                                                                                                                                    000000000000000000000000000000000000000000                                                                                                                                                                                     
19907214153420000000040000000000700135177735016900000003571022000000521070000004912000014810000356000041200000000                                                                                                                                                                                    000000000000000000000000000000000000000000                                                                                                                                                                                     
19907213865540000000040000000000700135146735016900000002737022000000399390000003765000011340000356000041200000000                                                                                                                                                                                    000000000000000000000000000000000000000000                                                                                                                                                                                     
12500004719790000000040000000000700135060635016900000002265022000000330460000003115500009360000356000041200000000                                                                                                                                                                                    000000000000000000000000000000000000000000                                                                                                                                                                                     
19907214091400000000040000000000700149776335016900000007321020000001040530000009848000028640000319000037400000000                                                                                                                                                                                    000000000000000000000000000000000000000000                                                                                                                                                                                     
14011506607810568819140000000000700135099135016900000001124022000000163940000001545700004630000356000041300000000                                                                                                                                                                                    000000000000000000000000000000000000000000                                                                                                                                                                                     
11600000596100010803140000000000700135109235016900000001400022000000204260000001925400005820000356000041200000000                                                                                                                                                                                    000000000000000000000000000000000000000000                                                                                                                                                                                     
12624123245000000000040000000000700148485835016900000001474014000000160940000001528700003880000311000037900000000                                                                                                                                                                                    000000000000000000000000000000000000000000                                                                                                                                                                                     
12641903562950000000040000000000700135068135016900000002303022000000335960000003167200009530000356000041200000000                                                                                                                                                                                    000000000000000000000000000000000000000000                                                                                                                                                                                     
12624424952410000000040000000000700135111435016900000003264022000000476250000004489400013550000356000041200000000                                                                                                                                                                                    000000000000000000000000000000000000000000                                                                                                                                                                                     
14080604425080353334440000000000700135161035016900000001526022000000222680000002099100006330000356000041200000000                                                                                                                                                                                    000000000000000000000000000000000000000000                                                                                                                                                                                     
12500017448690000000040000000000700135204835016900000002289022000000334030000003148800009500000356000041200000000                                                                                                                                                                                    000000000000000000000000000000000000000000                                                                                                                                                                                     
12500005745110558815440000000000700134995035016900000002217022000000323480000003049700009160000356000041200000000                                                                                                                                                                                    000000000000000000000000000000000000000000                                                                                                                                                                                     
15720209042050000000040000000000700135141635016900000003856022000000562560000005303200015970000356000041200000000                                                                                                                                                                                    000000000000000000000000000000000000000000                                                                                                                                                                                     
12624063300100293776040000000000700135112235016900000001682022000000245480000002314100006970000356000041200000000                                                                                                                                                                                    000000000000000000000000000000000000000000                                                                                                                                                                                     
12623515290660000000040000000000700149672435016900000002276065000000580790000005467100018960000333000036000000000                                                                                                                                                                                    000000000000000000000000000000000000000000                                                                                                                                                                                     
12627104657030578317840000000000700135063035016900000001958022000000285700000002692900008150000356000041200000000                                                                                                                                                                                    000000000000000000000000000000000000000000                                                                                                                                                                                     
11600000889460493096740000000000700135108435016900000001197022000000174650000001646300004970000356000041200000000                                                                                                                                                                                    000000000000000000000000000000000000000000                                                                                                                                                                                     
12624503763130386283640000000000700135158035016900000001417022000000206760000001949100005880000356000041200000000                                                                                                                                                                                    000000000000000000000000000000000000000000                                                                                                                                                                                     
12624103416220000000040000000000700149139035016900000002084065000000531780000005006500017290000333000036000000000                                                                                                                                                                                    000000000000000000000000000000000000000000                                                                                                                                                                                     
12624803836860000000040000000000700135183135016900000001457022000000212630000002004400006040000356000041200000000                                                                                                                                                                                    000000000000000000000000000000000000000000                                                                                                                                                                                     
19907214041180000000040000000000700135096735016900000002276022000000332040000003129800009460000356000041300000000                                                                                                                                                                                    000000000000000000000000000000000000000000                                                                                                                                                                                     
12624611588360000000040000000000700135101735016900000001824022000000266120000002508600007560000356000041200000000                                                                                                                                                                                    000000000000000000000000000000000000000000                                                                                                                                                                                     
19907213966910424133940000000000700135162935016900000002047022000000298600000002814900008480000356000041300000000                                                                                                                                                                                    000000000000000000000000000000000000000000                                                                                                                                                                                     
12624206760430000000040000000000700135149135016900000002258022000000329430000003105600009350000356000041200000000                                                                                                                                                                                    000000000000000000000000000000000000000000                                                                                                                                                                                     
19907213921440000000040000000000700149383035016900000003625067000000932320000008776600030390000333000036000000000                                                                                                                                                                                    000000000000000000000000000000000000000000                                                                                                                                                                                     
12627117800450000000040000000000700149683135016900000000439029000000079160000000747200002380000325000036900000000                                                                                                                                                                                    000000000000000000000000000000000000000000                                                                                                                                                                                     
14220702232820000000040000000000700149457835016900000003373016000000407910000003868700010420000314000037700000000                                                                                                                                                                                    000000000000000000000000000000000000000000                                                                                                                                                                                     
19907213943840000000040000000000700135098335016900000003107022000000453300000004273300012870000356000041200000000                                                                                                                                                                                    000000000000000000000000000000000000000000                                                                                                                                                                                     
12500065313840000000040000000000700135201335016900000002211022000000322660000003041700009170000356000041200000000                                                                                                                                                                                    000000000000000000000000000000000000000000                                                                                                                                                                                     
12624211339300000000040000000000700135134335016900000002145022000000312970000002950200008900000356000041200000000                                                                                                                                                                                    000000000000000000000000000000000000000000                                                                                                                                                                                     
12624211325100000000040000000000700149155235016900000004957053000001187600000011184300038260000331000036200000000                                                                                                                                                                                    000000000000000000000000000000000000000000                                                                                                                                                                                     
11600000800660000000040000000000700135220135016900000002038020000000279440000002636200007740000354000041400000000                                                                                                                                                                                    000000000000000000000000000000000000000000                                                                                                                                                                                     
19907213901580000000040000000000700135122135016900000006593022000000962000000009068700027330000356000041200000000                                                                                                                                                                                    000000000000000000000000000000000000000000                                                                                                                                                                                     
11600000800580000000040000000000700149163335016800000001625007000000099360000000952400001530000288000038200000000                                                                                                                                                                                    000000000000000000000000000000000000000000                                                                                                                                                                                     
19907213930880514879140000000000700135046035016900000001143022000000166700000001571500004730000356000041300000000                                                                                                                                                                                    000000000000000000000000000000000000000000                                                                                                                                                                                     
12100016034240000000040000000000700149660035016900000000609056000000148760000001401200004770000332000036100000000                                                                                                                                                                                    000000000000000000000000000000000000000000                                                                                                                                                                                     
12100012919710348040240000000000700148627335016900000001020004000000037480000000360800000430000263000038400000000                                                                                                                                                                                    000000000000000000000000000000000000000000                                                                                                                                                                                     
19907214035630000000040000000000700135117335016900000003518022000000513270000004838900014550000356000041200000000                                                                                                                                                                                    000000000000000000000000000000000000000000                                                                                                                                                                                     
19907214072930662650540000000000700134997735016900000002863022000000417660000003937100011880000356000041300000000                                                                                                                                                                                    000000000000000000000000000000000000000000                                                                                                                                                                                     
12623920443990000000040000000000700135065735016900000001979022000000288760000002722300008190000356000041200000000                                                                                                                                                                                    000000000000000000000000000000000000000000                                                                                                                                                                                     
12011515375370000000040000000000700149111035016900000003797029000000684740000006464000020510000325000036900000000                                                                                                                                                                                    000000000000000000000000000000000000000000                                                                                                                                                                                     
19907213848090000000040000000000700148733435016800000003242013000000333980000003175400007740000309000037900000000                                                                                                                                                                                    000000000000000000000000000000000000000000                                                                                                                                                                                     
19907214148400494418640000000000700135048735016900000002103022000000306760000002891600008730000356000041300000000                                                                                                                                                                                    000000000000000000000000000000000000000000                                                                                                                                                                                     
12011501744460000000040000000000700148834935016900000005116027000000884250000008350600026170000324000037000000000                                                                                                                                                                                    000000000000000000000000000000000000000000                                                                                                                                                                                     
11600000753050384110340000000000700135222635016900000004460019000000590750000005575700016100000353000041400000000                                                                                                                                                                                    000000000000000000000000000000000000000000                                                                                                                                                                                     
19907214064420495357640000000000700135000235016900000004618022000000673710000006351100019130000356000041200000000                                                                                                                                                                                    000000000000000000000000000000000000000000                                                                                                                                                                                     
12500006259830653589540000000000700135051735016900000004071022000000594010000005599700016870000356000041200000000                                                                                                                                                                                    000000000000000000000000000000000000000000                                                                                                                                                                                     
14080606968620000000040000000000700148689335016900000001587008000000109070000001044000001830000293000038100000000                                                                                                                                                                                    000000000000000000000000000000000000000000                                                                                                                                                                                     
14010804510590000000040000000000700135137835016900000003826022000000558260000005262900015830000356000041200000000                                                                                                                                                                                    000000000000000000000000000000000000000000                                                                                                                                                                                     
12627911672140000000040000000000700135166135016900000002757021000000390340000003681100010940000355000041300000000                                                                                                                                                                                    000000000000000000000000000000000000000000                                                                                                                                                                                     
12625126962040000000040000000000700149566335016900000006219066000001593440000015000000051960000333000036000000000                                                                                                                                                                                    000000000000000000000000000000000000000000                                                                                                                                                                                     
12624563622210000000040000000000700135044435016900000003597022000000524870000004948000014900000356000041200000000                                                                                                                                                                                    000000000000000000000000000000000000000000                                                                                                                                                                                     
19907213978480000000040000000000700149167635016900000006702018000000883960000008373900023560000316000037600000000                                                                                                                                                                                    000000000000000000000000000000000000000000                                                                                                                                                                                     
19907214081680000000040000000000700133919135016900000006637022000000968290000009127700027530000356000041200000000                                                                                                                                                                                    000000000000000000000000000000000000000000                                                                                                                                                                                     
12500006329860000000040000000000700149415235016900000002084027000000360280000003402400010660000324000037000000000                                                                                                                                                                                    000000000000000000000000000000000000000000                                                                                                                                                                                     
15720209041330000000040000000000700135120335016900000004430022000000646420000006093900018340000356000041200000000                                                                                                                                                                                    000000000000000000000000000000000000000000                                                                                                                                                                                     
12623216691260000000040000000000700149538835016900000003197065000000815740000007679100026600000333000036000000000                                                                                                                                                                                    000000000000000000000000000000000000000000                                                                                                                                                                                     
12620121514390000000040000000000700135054135016900000003839022000000560060000005279800015890000356000041200000000                                                                                                                                                                                    000000000000000000000000000000000000000000                                                                                                                                                                                     
12642419873860000000040000000000700136307435016900000002769022000000404020000003808600011480000356000041200000000                                                                                                                                                                                    000000000000000000000000000000000000000000                                                                                                                                                                                     
14080604403180000000040000000000700134989635016900000002651021000000375340000003539500010540000355000041300000000                                                                                                                                                                                    000000000000000000000000000000000000000000                                                                                                                                                                                     
12624217914400000000040000000000700148493935016800000001536007000000093940000000900400001450000288000038100000000                                                                                                                                                                                    000000000000000000000000000000000000000000                                                                                                                                                                                     
12500006484480000000040000000000700149128535016900000001675077000000444610000004184200014620000334000035900000000                                                                                                                                                                                    000000000000000000000000000000000000000000                                                                                                                                                                                     
19907214104400000000040000000000700135116535016900000006631022000000967440000009120000027470000356000041200000000                                                                                                                                                                                    000000000000000000000000000000000000000000                                                                                                                                                                                     
19907213972150000000040000000000700149100535016900000003372018000000444700000004212500011870000317000037600000000                                                                                                                                                                                    000000000000000000000000000000000000000000                                                                                                                                                                                     
19907213915880000000040000000000700149348235016900000003113018000000410660000003890000010970000316000037600000000                                                                                                                                                                                    000000000000000000000000000000000000000000                                                                                                                                                                                     
14011610951360000000040000000000700149531035016900000003443078000000916500000008625000030140000334000035900000000                                                                                                                                                                                    000000000000000000000000000000000000000000                                                                                                                                                                                     
14520507745150000000040000000000700148660535016900000000548051000000129570000001220700004130000331000036200000000                                                                                                                                                                                    000000000000000000000000000000000000000000                                                                                                                                                                                     
15720213768680000000040000000000700135001035016900000003567022000000520390000004905700014780000356000041200000000                                                                                                                                                                                    000000000000000000000000000000000000000000                                                                                                                                                                                     
19907214011590000000040000000000700148770935016900000002828018000000372970000003533300009930000317000037600000000                                                                                                                                                                                    000000000000000000000000000000000000000000                                                                                                                                                                                     
14070104838180000000040000000000700135205635016900000002633022000000384170000003621700010900000356000041200000000                                                                                                                                                                                    000000000000000000000000000000000000000000                                                                                                                                                                                     
19907213978880000000040000000000700135011835016900000007033022000001026080000009673000029120000356000041200000000                                                                                                                                                                                    000000000000000000000000000000000000000000                                                                                                                                                                                     
14080612819410000000040000000000700135003735016900000006212022000000906390000008544700025720000356000041200000000                                                                                                                                                                                    000000000000000000000000000000000000000000                                                                                                                                                                                     
12625210160790000000040000000000700135088635016900000004441022000000648010000006108700018410000356000041200000000                                                                                                                                                                                    000000000000000000000000000000000000000000                                                                                                                                                                                     
12623562990780000000040000000000700135184135016900000004336022000000632690000005964400017970000356000041200000000                                                                                                                                                                                    000000000000000000000000000000000000000000                                                                                                                                                                                     
15720209438590000000040000000000700135153135016900000003750022000000547090000005157200015560000356000041200000000                                                                                                                                                                                    000000000000000000000000000000000000000000                                                                                                                                                                                     
12627104051760000000040000000000700135199835016900000002614022000000381410000003595600010830000356000041200000000                                                                                                                                                                                    000000000000000000000000000000000000000000                                                                                                                                                                                     
12627904229600000000040000000000700148836535016900000002188065000000558350000005256000018210000333000036000000000                                                                                                                                                                                    000000000000000000000000000000000000000000                                                                                                                                                                                     
14080610178910000000040000000000700148856135016900000001170061000000293220000002760100009570000333000036100000000                                                                                                                                                                                    000000000000000000000000000000000000000000                                                                                                                                                                                     
13320010535620000000040000000000700148862435016900000001672077000000444030000004178300014640000334000035900000000                                                                                                                                                                                    000000000000000000000000000000000000000000                                                                                                                                                                                     
14070106790470481459240000000000700136287635016900000002030021000000287500000002711100008080000355000041300000000                                                                                                                                                                                    000000000000000000000000000000000000000000                                                                                                                                                                                     
14080608724790020112040000000000700136127635016900000001345029000000231130000002174800006970000361000040900000000                                                                                                                                                                                    000000000000000000000000000000000000000000                                                                                                                                                                                     
13500010647330210983240000000000700148316935016900000001362047000000311840000002937900009930000331000036300000000                                                                                                                                                                                    000000000000000000000000000000000000000000                                                                                                                                                                                     
12624503686730492127540000000000700135156435016900000002187022000000319080000003008000009060000356000041200000000                                                                                                                                                                                    000000000000000000000000000000000000000000                                                                                                                                                                                     
15720217086710000000040000000000700148998135016900000006627049000001542530000014530500049330000331000036300000000                                                                                                                                                                                    000000000000000000000000000000000000000000                                                                                                                                                                                     
14010810281880126611040000000000700135059235016900000001505022000000219590000002070100006230000356000041200000000                                                                                                                                                                                    000000000000000000000000000000000000000000                                                                                                                                                                                     
12627911677200000000040000000000700135106835016900000001060022000000154600000001457400004390000356000041300000000                                                                                                                                                                                    000000000000000000000000000000000000000000                                                                                                                                                                                     
12500004780410000000040000000000700135208035016900000002028022000000295820000002788500008420000356000041300000000                                                                                                                                                                                    000000000000000000000000000000000000000000                                                                                                                                                                                     
14010811149920234075540000000000700133539935016900000002680010000000218450000002078400004290000334000041900000000                                                                                                                                                                                    000000000000000000000000000000000000000000                                                                                                                                                                                     
19907223884830000000040000000000700135066535016900000003519022000000513410000004840300014540000356000041200000000                                                                                                                                                                                    000000000000000000000000000000000000000000                                                                                                                                                                                     
14080611650620278603640000000000700135069135016900000001441022000000210280000001982000006000000356000041200000000                                                                                                                                                                                    000000000000000000000000000000000000000000                                                                                                                                                                                     
12624211318850000000040000000000700135021535016900000001884022000000274850000002590900007820000356000041200000000                                                                                                                                                                                    000000000000000000000000000000000000000000                                                                                                                                                                                     
14010810280630126364140000000000700149448935016900000001141008000000078420000000750600001310000293000038100000000                                                                                                                                                                                    000000000000000000000000000000000000000000                                                                                                                                                                                     
19907213978040423765040000000000700135194735016900000006650022000000970270000009146400027580000356000041200000000                                                                                                                                                                                    000000000000000000000000000000000000000000                                                                                                                                                                                     
15720208819040000000040000000000700135218835016900000003824021000000541440000005105800015210000355000041300000000                                                                                                                                                                                    000000000000000000000000000000000000000000                                                                                                                                                                                     
11330000387610071816540000000000700135142435016900000001737022000000253370000002388500007200000356000041300000000                                                                                                                                                                                    000000000000000000000000000000000000000000                                                                                                                                                                                     
12011512958950000000040000000000700136333335016900000003670041000000744960000006999300023500000366000040400000000                                                                                                                                                                                    000000000000000000000000000000000000000000                                                                                                                                                                                     
19907213889360000000040000000000700149795135016900000002147064000000545490000005135300017770000333000036000000000                                                                                                                                                                                    000000000000000000000000000000000000000000                                                                                                                                                                                     
15720209103920252794440000000000700135102535016900000001922022000000280490000002644100007970000356000041200000000                                                                                                                                                                                    000000000000000000000000000000000000000000                                                                                                                                                                                     
14010806718580000000040000000000700135164535016900000001190021000000168460000001588800004710000355000041300000000                                                                                                                                                                                    000000000000000000000000000000000000000000                                                                                                                                                                                     
12625203368930603638440000000000700135019335016900000001445022000000210780000001987000005990000356000041300000000                                                                                                                                                                                    000000000000000000000000000000000000000000                                                                                                                                                                                     
15720209474620000000040000000000700135042835016900000011675004000000424780000004075500004950000293000042400000000                                                                                                                                                                                    000000000000000000000000000000000000000000                                                                                                                                                                                     
19907213848510498555940000000000700134817235016900000004793022000000699240000006591900019840000356000041200000000                                                                                                                                                                                    000000000000000000000000000000000000000000                                                                                                                                                                                     
13080213232110412599140000000000700134851235016900000006304022000000919790000008670800026120000356000041200000000                                                                                                                                                                                    000000000000000000000000000000000000000000                                                                                                                                                                                     
19907214014700649508740000000000700133555035016900000001438026000000232410000002188400006860000359000041000000000                                                                                                                                                                                    000000000000000000000000000000000000000000                                                                                                                                                                                     
12623903272890290572840000000000700134864435016900000001134022000000165440000001559900004670000356000041200000000                                                                                                                                                                                    000000000000000000000000000000000000000000                                                                                                                                                                                     
12620102667310000000040000000000700149200135016900000003565077000000946610000008908300031140000334000035900000000                                                                                                                                                                                    000000000000000000000000000000000000000000                                                                                                                                                                                     
15720209302730000000040000000000700149356335016900000003374054000000813640000007662600026200000332000036200000000                                                                                                                                                                                    000000000000000000000000000000000000000000                                                                                                                                                                                     
11330000305320412417140000000000700134974835016900000001521022000000221940000002092100006310000356000041200000000                                                                                                                                                                                    000000000000000000000000000000000000000000                                                                                                                                                                                     
14220411080990259404840000000000700134806735016900000003003022000000438110000004130000012450000356000041200000000                                                                                                                                                                                    000000000000000000000000000000000000000000                                                                                                                                                                                     
11760009031910000000040000000000700134845835016900000004037022000000589030000005552500016750000356000041200000000                                                                                                                                                                                    000000000000000000000000000000000000000000                                                                                                                                                                                     
19907214169160425851740000000000700134823735016900000003981022000000580800000005475100016500000356000041200000000                                                                                                                                                                                    000000000000000000000000000000000000000000                                                                                                                                                                                     
14080607450550000000040000000000700148917535016900000002840075000000749840000007057800024540000334000035900000000                                                                                                                                                                                    000000000000000000000000000000000000000000                                                                                                                                                                                     
19907213858820000000040000000000700148953135016900000002954018000000389650000003691300010370000316000037600000000                                                                                                                                                                                    000000000000000000000000000000000000000000                                                                                                                                                                                     
11760009537450000000040000000000700134882235016900000016938022000002471250000023296400070180000356000041200000000                                                                                                                                                                                    000000000000000000000000000000000000000000                                                                                                                                                                                     
11330010929010193024940000000000700134965935016900000009727022000001419230000013378800040330000356000041200000000                                                                                                                                                                                    000000000000000000000000000000000000000000                                                                                                                                                                                     
11600010423750155805640000000000700134689735016900000001487022000000217000000002045700006160000356000041200000000                                                                                                                                                                                    000000000000000000000000000000000000000000                                                                                                                                                                                     
11760001023380000000040000000000700149091235016900000005670064000001440750000013563600046890000333000036000000000                                                                                                                                                                                    000000000000000000000000000000000000000000                                                                                                                                                                                     
19907201720340612266340000000000700148307135016900000002154004000000079110000000761400000920000264000038600000000                                                                                                                                                                                    000000000000000000000000000000000000000000                                                                                                                                                                                     
12623915208980000000040000000000700149536135016900000002852010000000237200000002263800004650000300000038000000000                                                                                                                                                                                    000000000000000000000000000000000000000000                                                                                                                                                                                     
12011501747160000000040000000000700135082735016900000006568021000000930040000008770300026120000355000041300000000                                                                                                                                                                                    000000000000000000000000000000000000000000                                                                                                                                                                                     
12641222644760000000040000000000700148670235016900000001677003000000046980000000452600000500000250000039000000000                                                                                                                                                                                    000000000000000000000000000000000000000000                                                                                                                                                                                     
14080601333350402517240000000000700134952735016900000003391022000000494770000004664300014040000356000041200000000                                                                                                                                                                                    000000000000000000000000000000000000000000                                                                                                                                                                                     
13200013142190000000040000000000700135081935016900000002902021000000410900000003874900011540000355000041300000000                                                                                                                                                                                    000000000000000000000000000000000000000000                                                                                                                                                                                     
12643712127010000000040000000000700134970535016900000006835022000000997260000009401200028320000356000041200000000                                                                                                                                                                                    000000000000000000000000000000000000000000                                                                                                                                                                                     
11760019467250000000040000000000700148530735016900000012998016000001572000000014909400040140000314000037700000000                                                                                                                                                                                    000000000000000000000000000000000000000000                                                                                                                                                                                     
12627016599810000000040000000000700134802435016900000004905022000000715720000006747000020330000356000041200000000                                                                                                                                                                                    000000000000000000000000000000000000000000                                                                                                                                                                                     
19907214042060000000040000000000700149399735016900000000938025000000154620000001460900004510000322000037100000000                                                                                                                                                                                    000000000000000000000000000000000000000000                                                                                                                                                                                     
15410004568050000000040000000000700134883035016900000002551022000000372220000003508500010610000356000041200000000                                                                                                                                                                                    000000000000000000000000000000000000000000                                                                                                                                                                                     
15410002201180000000040000000000700134886535016900000002571022000000375060000003535600010660000356000041200000000                                                                                                                                                                                    000000000000000000000000000000000000000000                                                                                                                                                                                     
12100001983080000000040000000000700148843835016900000001624045000000365350000003442600011580000330000036400000000                                                                                                                                                                                    000000000000000000000000000000000000000000                                                                                                                                                                                     
12640120138820000000040000000000700133559335016900000004578022000000667970000006296800018980000356000041200000000                                                                                                                                                                                    000000000000000000000000000000000000000000                                                                                                                                                                                     
13620721094700000000040000000000700149015735016900000005121025000000844060000007975000024590000323000037100000000                                                                                                                                                                                    000000000000000000000000000000000000000000                                                                                                                                                                                     
14080610170580000000040000000000700148855135016900000002519006000000134250000001288500001910000281000038200000000                                                                                                                                                                                    000000000000000000000000000000000000000000                                                                                                                                                                                     
12627911675520000000040000000000700135080035016900000001330021000000188360000001776200005290000355000041300000000                                                                                                                                                                                    000000000000000000000000000000000000000000                                                                                                                                                                                     
12625623845800000000040000000000700148692335016900000000919018000000121250000001148600003230000316000037500000000                                                                                                                                                                                    000000000000000000000000000000000000000000                                                                                                                                                                                     
12500006477290000000040000000000700135079735016900000001976021000000279840000002639200007830000355000041300000000                                                                                                                                                                                    000000000000000000000000000000000000000000                                                                                                                                                                                     
12627904229320000000040000000000700148830635016900000004491078000001195390000011250000039270000334000035900000000                                                                                                                                                                                    000000000000000000000000000000000000000000                                                                                                                                                                                     
12500005507750000000040000000000700134889135016900000001938022000000282800000002666100008010000356000041200000000                                                                                                                                                                                    000000000000000000000000000000000000000000                                                                                                                                                                                     
11760011071750000000040000000000700149663535016900000002125021000000312340000002954700008740000320000037300000000                                                                                                                                                                                    000000000000000000000000000000000000000000                                                                                                                                                                                     
12500004727740000000040000000000700134892135016900000002316022000000337840000003184600009610000356000041300000000                                                                                                                                                                                    000000000000000000000000000000000000000000                                                                                                                                                                                     
12500004752840000000040000000000700134891135016900000002577022000000376030000003544900010670000356000041200000000                                                                                                                                                                                    000000000000000000000000000000000000000000                                                                                                                                                                                     
12623618516410000000040000000000700148763635016900000000269075000000071080000000669300002300000333000035900000000                                                                                                                                                                                    000000000000000000000000000000000000000000                                                                                                                                                                                     
12500012193830000000040000000000700134816435016900000002692022000000392800000003702900011160000356000041200000000                                                                                                                                                                                    000000000000000000000000000000000000000000                                                                                                                                                                                     
12624312811340000000040000000000700134865235016900000001644022000000239810000002260700006810000356000041300000000                                                                                                                                                                                    000000000000000000000000000000000000000000                                                                                                                                                                                     
12500006298140000000040000000000700149034335016900000001483055000000359940000003389800011590000332000036100000000                                                                                                                                                                                    000000000000000000000000000000000000000000                                                                                                                                                                                     
12500018125040000000040000000000700135078935016900000004593021000000650400000006133500018250000355000041300000000                                                                                                                                                                                    000000000000000000000000000000000000000000                                                                                                                                                                                     
12420402236000000000040000000000700149542635016900000004058003000000113680000001095300001190000250000038900000000                                                                                                                                                                                    000000000000000000000000000000000000000000                                                                                                                                                                                     
12500017286030000000040000000000700134829635016900000001727022000000251930000002375000007150000356000041200000000                                                                                                                                                                                    000000000000000000000000000000000000000000                                                                                                                                                                                     
